{
  "contractName": "Dark",
  "abi": [
    {
      "inputs": [],
      "payable": false,
      "stateMutability": "nonpayable",
      "type": "constructor"
    },
    {
      "anonymous": false,
      "inputs": [
        {
          "indexed": false,
          "internalType": "uint256",
          "name": "count",
          "type": "uint256"
        }
      ],
      "name": "foo",
      "type": "event"
    },
    {
      "constant": true,
      "inputs": [
        {
          "internalType": "uint256",
          "name": "",
          "type": "uint256"
        }
      ],
      "name": "allCommentPtrs",
      "outputs": [
        {
          "internalType": "bytes32",
          "name": "",
          "type": "bytes32"
        }
      ],
      "payable": false,
      "stateMutability": "view",
      "type": "function"
    },
    {
      "constant": true,
      "inputs": [
        {
          "internalType": "uint256",
          "name": "",
          "type": "uint256"
        }
      ],
      "name": "allPostPtrs",
      "outputs": [
        {
          "internalType": "bytes32",
          "name": "",
          "type": "bytes32"
        }
      ],
      "payable": false,
      "stateMutability": "view",
      "type": "function"
    },
    {
      "constant": true,
      "inputs": [],
      "name": "numOfComments",
      "outputs": [
        {
          "internalType": "uint256",
          "name": "",
          "type": "uint256"
        }
      ],
      "payable": false,
      "stateMutability": "view",
      "type": "function"
    },
    {
      "constant": true,
      "inputs": [],
      "name": "numOfPosts",
      "outputs": [
        {
          "internalType": "uint256",
          "name": "",
          "type": "uint256"
        }
      ],
      "payable": false,
      "stateMutability": "view",
      "type": "function"
    },
    {
      "constant": true,
      "inputs": [
        {
          "internalType": "uint256",
          "name": "",
          "type": "uint256"
        }
      ],
      "name": "post2Comment",
      "outputs": [
        {
          "internalType": "bytes32",
          "name": "",
          "type": "bytes32"
        }
      ],
      "payable": false,
      "stateMutability": "view",
      "type": "function"
    },
    {
      "constant": true,
      "inputs": [
        {
          "internalType": "bytes32",
          "name": "",
          "type": "bytes32"
        }
      ],
      "name": "ptr2Comment",
      "outputs": [
        {
          "internalType": "bytes32",
          "name": "next",
          "type": "bytes32"
        },
        {
          "internalType": "address",
          "name": "userID",
          "type": "address"
        },
        {
          "internalType": "uint256",
          "name": "postID",
          "type": "uint256"
        },
        {
          "internalType": "uint256",
          "name": "commentID",
          "type": "uint256"
        },
        {
          "internalType": "uint256",
          "name": "timestamp",
          "type": "uint256"
        },
        {
          "internalType": "string",
          "name": "text",
          "type": "string"
        }
      ],
      "payable": false,
      "stateMutability": "view",
      "type": "function"
    },
    {
      "constant": true,
      "inputs": [
        {
          "internalType": "bytes32",
          "name": "",
          "type": "bytes32"
        }
      ],
      "name": "ptr2Post",
      "outputs": [
        {
          "internalType": "bytes32",
          "name": "next",
          "type": "bytes32"
        },
        {
          "internalType": "address",
          "name": "userID",
          "type": "address"
        },
        {
          "internalType": "uint256",
          "name": "postID",
          "type": "uint256"
        },
        {
          "internalType": "uint256",
          "name": "timestamp",
          "type": "uint256"
        },
        {
          "internalType": "string",
          "name": "text",
          "type": "string"
        }
      ],
      "payable": false,
      "stateMutability": "view",
      "type": "function"
    },
    {
      "constant": true,
      "inputs": [
        {
          "internalType": "address",
          "name": "",
          "type": "address"
        }
      ],
      "name": "user2Post",
      "outputs": [
        {
          "internalType": "bytes32",
          "name": "",
          "type": "bytes32"
        }
      ],
      "payable": false,
      "stateMutability": "view",
      "type": "function"
    },
    {
      "constant": false,
      "inputs": [
        {
          "internalType": "string",
          "name": "text",
          "type": "string"
        }
      ],
      "name": "createNewPost",
      "outputs": [],
      "payable": false,
      "stateMutability": "nonpayable",
      "type": "function"
    },
    {
      "constant": false,
      "inputs": [
        {
          "internalType": "uint256",
          "name": "postID",
          "type": "uint256"
        },
        {
          "internalType": "string",
          "name": "text",
          "type": "string"
        }
      ],
      "name": "createNewComment",
      "outputs": [],
      "payable": false,
      "stateMutability": "nonpayable",
      "type": "function"
    },
    {
      "constant": false,
      "inputs": [
        {
          "internalType": "uint256",
          "name": "postID",
          "type": "uint256"
        }
      ],
      "name": "getPost",
      "outputs": [
        {
          "components": [
            {
              "internalType": "bytes32",
              "name": "next",
              "type": "bytes32"
            },
            {
              "internalType": "address",
              "name": "userID",
              "type": "address"
            },
            {
              "internalType": "uint256",
              "name": "postID",
              "type": "uint256"
            },
            {
              "internalType": "uint256",
              "name": "timestamp",
              "type": "uint256"
            },
            {
              "internalType": "string",
              "name": "text",
              "type": "string"
            }
          ],
          "internalType": "struct Dark.Post",
          "name": "post",
          "type": "tuple"
        }
      ],
      "payable": false,
      "stateMutability": "nonpayable",
      "type": "function"
    },
    {
      "constant": false,
      "inputs": [
        {
          "internalType": "uint256",
          "name": "commentID",
          "type": "uint256"
        }
      ],
      "name": "getComment",
      "outputs": [
        {
          "components": [
            {
              "internalType": "bytes32",
              "name": "next",
              "type": "bytes32"
            },
            {
              "internalType": "address",
              "name": "userID",
              "type": "address"
            },
            {
              "internalType": "uint256",
              "name": "postID",
              "type": "uint256"
            },
            {
              "internalType": "uint256",
              "name": "commentID",
              "type": "uint256"
            },
            {
              "internalType": "uint256",
              "name": "timestamp",
              "type": "uint256"
            },
            {
              "internalType": "string",
              "name": "text",
              "type": "string"
            }
          ],
          "internalType": "struct Dark.Comment",
          "name": "c",
          "type": "tuple"
        }
      ],
      "payable": false,
      "stateMutability": "nonpayable",
      "type": "function"
    }
  ],
  "bytecode": "0x608060405234801561001057600080fd5b506000600181905550600080819055506114198061002f6000396000f3fe608060405234801561001057600080fd5b50600436106100b45760003560e01c8063739bca8411610071578063739bca84146101dd57806384e78bf41461020d5780639f8bc67514610229578063c8b8f65014610245578063d02367dd14610263578063febfcf3114610281576100b4565b80630800e300146100b95780630c451537146100e9578063184aa1021461011957806340731c241461014d57806343f3fbc51461017d5780635e1f0fcb146101ad575b600080fd5b6100d360048036036100ce9190810190610dff565b6102b6565b6040516100e091906111cd565b60405180910390f35b61010360048036036100fe9190810190610dff565b61043b565b60405161011091906110f0565b60405180910390f35b610133600480360361012e9190810190610d95565b61045c565b60405161014495949392919061110b565b60405180910390f35b61016760048036036101629190810190610dff565b61054a565b60405161017491906111ef565b60405180910390f35b61019760048036036101929190810190610d6c565b6106c5565b6040516101a491906110f0565b60405180910390f35b6101c760048036036101c29190810190610dff565b6106dd565b6040516101d491906110f0565b60405180910390f35b6101f760048036036101f29190810190610dff565b6106fe565b60405161020491906110f0565b60405180910390f35b61022760048036036102229190810190610dbe565b610716565b005b610243600480360361023e9190810190610e28565b6108fd565b005b61024d610a9d565b60405161025a9190611211565b60405180910390f35b61026b610aa3565b6040516102789190611211565b60405180910390f35b61029b60048036036102969190810190610d95565b610aa9565b6040516102ad96959493929190611165565b60405180910390f35b6102be610b9d565b816000111580156102d0575060015482105b6102d957600080fd5b6000600583815481106102e857fe5b90600052602060002001549050600260008281526020019081526020016000206040518060c0016040529081600082015481526020016001820160009054906101000a900473ffffffffffffffffffffffffffffffffffffffff1673ffffffffffffffffffffffffffffffffffffffff1673ffffffffffffffffffffffffffffffffffffffff168152602001600282015481526020016003820154815260200160048201548152602001600582018054600181600116156101000203166002900480601f01602080910402602001604051908101604052809291908181526020018280546001816001161561010002031660029004801561042a5780601f106103ff5761010080835404028352916020019161042a565b820191906000526020600020905b81548152906001019060200180831161040d57829003601f168201915b505050505081525050915050919050565b6004818154811061044857fe5b906000526020600020016000915090505481565b60036020528060005260406000206000915090508060000154908060010160009054906101000a900473ffffffffffffffffffffffffffffffffffffffff1690806002015490806003015490806004018054600181600116156101000203166002900480601f0160208091040260200160405190810160405280929190818152602001828054600181600116156101000203166002900480156105405780601f1061051557610100808354040283529160200191610540565b820191906000526020600020905b81548152906001019060200180831161052357829003601f168201915b5050505050905085565b610552610bec565b81600011158015610564575060005482105b61056d57600080fd5b60006004838154811061057c57fe5b90600052602060002001549050600360008281526020019081526020016000206040518060a0016040529081600082015481526020016001820160009054906101000a900473ffffffffffffffffffffffffffffffffffffffff1673ffffffffffffffffffffffffffffffffffffffff1673ffffffffffffffffffffffffffffffffffffffff1681526020016002820154815260200160038201548152602001600482018054600181600116156101000203166002900480601f0160208091040260200160405190810160405280929190818152602001828054600181600116156101000203166002900480156106b45780601f10610689576101008083540402835291602001916106b4565b820191906000526020600020905b81548152906001019060200180831161069757829003601f168201915b505050505081525050915050919050565b60066020528060005260406000206000915090505481565b600581815481106106ea57fe5b906000526020600020016000915090505481565b60076020528060005260406000206000915090505481565b61071e610bec565b6040518060a00160405280600660003373ffffffffffffffffffffffffffffffffffffffff1673ffffffffffffffffffffffffffffffffffffffff1681526020019081526020016000205481526020013373ffffffffffffffffffffffffffffffffffffffff1681526020016000548152602001428152602001838152509050600081602001518260400151836060015184608001516040516020016107c794939291906110a6565b60405160208183030381529060405280519060200120905081600360008381526020019081526020016000206000820151816000015560208201518160010160006101000a81548173ffffffffffffffffffffffffffffffffffffffff021916908373ffffffffffffffffffffffffffffffffffffffff16021790555060408201518160020155606082015181600301556080820151816004019080519060200190610874929190610c34565b5090505080600660003373ffffffffffffffffffffffffffffffffffffffff1673ffffffffffffffffffffffffffffffffffffffff16815260200190815260200160002081905550600481908060018154018082558091505090600182039060005260206000200160009091929091909150555060016000808282540192505081905550505050565b610905610b9d565b6040518060c00160405280600760008681526020019081526020016000205481526020013373ffffffffffffffffffffffffffffffffffffffff168152602001848152602001600154815260200142815260200183815250905060008160200151826060015183608001518460a0015160405160200161098894939291906110a6565b60405160208183030381529060405280519060200120905081600260008381526020019081526020016000206000820151816000015560208201518160010160006101000a81548173ffffffffffffffffffffffffffffffffffffffff021916908373ffffffffffffffffffffffffffffffffffffffff16021790555060408201518160020155606082015181600301556080820151816004015560a0820151816005019080519060200190610a3f929190610c34565b5090505080600760008681526020019081526020016000208190555060058190806001815401808255809150509060018203906000526020600020016000909192909190915055506001806000828254019250508190555050505050565b60005481565b60015481565b60026020528060005260406000206000915090508060000154908060010160009054906101000a900473ffffffffffffffffffffffffffffffffffffffff1690806002015490806003015490806004015490806005018054600181600116156101000203166002900480601f016020809104026020016040519081016040528092919081815260200182805460018160011615610100020316600290048015610b935780601f10610b6857610100808354040283529160200191610b93565b820191906000526020600020905b815481529060010190602001808311610b7657829003601f168201915b5050505050905086565b6040518060c0016040528060008019168152602001600073ffffffffffffffffffffffffffffffffffffffff168152602001600081526020016000815260200160008152602001606081525090565b6040518060a0016040528060008019168152602001600073ffffffffffffffffffffffffffffffffffffffff1681526020016000815260200160008152602001606081525090565b828054600181600116156101000203166002900490600052602060002090601f016020900481019282601f10610c7557805160ff1916838001178555610ca3565b82800160010185558215610ca3579182015b82811115610ca2578251825591602001919060010190610c87565b5b509050610cb09190610cb4565b5090565b610cd691905b80821115610cd2576000816000905550600101610cba565b5090565b90565b600081359050610ce881611391565b92915050565b600081359050610cfd816113a8565b92915050565b600082601f830112610d1457600080fd5b8135610d27610d2282611259565b61122c565b91508082526020830160208301858383011115610d4357600080fd5b610d4e838284611303565b50505092915050565b600081359050610d66816113bf565b92915050565b600060208284031215610d7e57600080fd5b6000610d8c84828501610cd9565b91505092915050565b600060208284031215610da757600080fd5b6000610db584828501610cee565b91505092915050565b600060208284031215610dd057600080fd5b600082013567ffffffffffffffff811115610dea57600080fd5b610df684828501610d03565b91505092915050565b600060208284031215610e1157600080fd5b6000610e1f84828501610d57565b91505092915050565b60008060408385031215610e3b57600080fd5b6000610e4985828601610d57565b925050602083013567ffffffffffffffff811115610e6657600080fd5b610e7285828601610d03565b9150509250929050565b610e85816112bd565b82525050565b610e94816112bd565b82525050565b610eab610ea6826112bd565b611345565b82525050565b610eba816112cf565b82525050565b610ec9816112cf565b82525050565b6000610eda82611285565b610ee48185611290565b9350610ef4818560208601611312565b610efd81611373565b840191505092915050565b6000610f1382611285565b610f1d81856112a1565b9350610f2d818560208601611312565b610f3681611373565b840191505092915050565b6000610f4c82611285565b610f5681856112b2565b9350610f66818560208601611312565b80840191505092915050565b600060c083016000830151610f8a6000860182610eb1565b506020830151610f9d6020860182610e7c565b506040830151610fb06040860182611071565b506060830151610fc36060860182611071565b506080830151610fd66080860182611071565b5060a083015184820360a0860152610fee8282610ecf565b9150508091505092915050565b600060a0830160008301516110136000860182610eb1565b5060208301516110266020860182610e7c565b5060408301516110396040860182611071565b50606083015161104c6060860182611071565b50608083015184820360808601526110648282610ecf565b9150508091505092915050565b61107a816112f9565b82525050565b611089816112f9565b82525050565b6110a061109b826112f9565b611369565b82525050565b60006110b28287610e9a565b6014820191506110c2828661108f565b6020820191506110d2828561108f565b6020820191506110e28284610f41565b915081905095945050505050565b60006020820190506111056000830184610ec0565b92915050565b600060a0820190506111206000830188610ec0565b61112d6020830187610e8b565b61113a6040830186611080565b6111476060830185611080565b81810360808301526111598184610f08565b90509695505050505050565b600060c08201905061117a6000830189610ec0565b6111876020830188610e8b565b6111946040830187611080565b6111a16060830186611080565b6111ae6080830185611080565b81810360a08301526111c08184610f08565b9050979650505050505050565b600060208201905081810360008301526111e78184610f72565b905092915050565b600060208201905081810360008301526112098184610ffb565b905092915050565b60006020820190506112266000830184611080565b92915050565b6000604051905081810181811067ffffffffffffffff8211171561124f57600080fd5b8060405250919050565b600067ffffffffffffffff82111561127057600080fd5b601f19601f8301169050602081019050919050565b600081519050919050565b600082825260208201905092915050565b600082825260208201905092915050565b600081905092915050565b60006112c8826112d9565b9050919050565b6000819050919050565b600073ffffffffffffffffffffffffffffffffffffffff82169050919050565b6000819050919050565b82818337600083830152505050565b60005b83811015611330578082015181840152602081019050611315565b8381111561133f576000848401525b50505050565b600061135082611357565b9050919050565b600061136282611384565b9050919050565b6000819050919050565b6000601f19601f8301169050919050565b60008160601b9050919050565b61139a816112bd565b81146113a557600080fd5b50565b6113b1816112cf565b81146113bc57600080fd5b50565b6113c8816112f9565b81146113d357600080fd5b5056fea365627a7a723158200b337abcaa3d320f90241635f2e0bb27771459cc10e6b0cbc7afe4374a8424e16c6578706572696d656e74616cf564736f6c63430005100040",
  "source": "pragma solidity ^0.5.0;\npragma experimental ABIEncoderV2;\n\ncontract Dark {\n    uint256 public numOfPosts;\n    uint256 public numOfComments;\n\n    struct Comment {\n        bytes32 next; // reference of the next comment of the same postID\n        address userID;\n        uint256 postID;\n        uint256 commentID;\n        uint256 timestamp;\n        string text;\n    }\n\n    struct Post {\n        bytes32 next; // referece of the next post of the same userID\n        address userID;\n        uint256 postID;\n        uint256 timestamp;\n        string text;\n    }\n\n    // store all post structs\n    mapping(bytes32 => Comment) public ptr2Comment;\n    // store all comment structs\n    mapping(bytes32 => Post) public ptr2Post;\n\n    // all post ptrs by time\n    bytes32[] public allPostPtrs;\n    // all comment ptrs by time\n    bytes32[] public allCommentPtrs;\n    // userID -> ptr of the posts\n    mapping(address => bytes32) public user2Post;\n    // postID -> ptr of the comments\n    mapping(uint256 => bytes32) public post2Comment;\n\n    event foo(uint256 count);\n\n    constructor() public {\n        numOfComments = 0;\n        numOfPosts = 0;\n    }\n\n    function createNewPost(string memory text) public {\n        Post memory newPost = Post(\n            user2Post[msg.sender],\n            msg.sender,\n            numOfPosts,\n            now,\n            text\n        );\n        bytes32 postPtr = keccak256(\n            abi.encodePacked(\n                newPost.userID,\n                newPost.postID,\n                newPost.timestamp,\n                newPost.text\n            )\n        );\n        ptr2Post[postPtr] = newPost;\n        user2Post[msg.sender] = postPtr;\n        allPostPtrs.push(postPtr);\n        numOfPosts += 1;\n    }\n\n    function createNewComment(uint256 postID, string memory text) public {\n        Comment memory newComment = Comment(\n            post2Comment[postID],\n            msg.sender,\n            postID,\n            numOfComments,\n            now,\n            text\n        );\n        bytes32 commentPtr = keccak256(\n            abi.encodePacked(\n                newComment.userID,\n                newComment.commentID,\n                newComment.timestamp,\n                newComment.text\n            )\n        );\n        ptr2Comment[commentPtr] = newComment;\n        post2Comment[postID] = commentPtr;\n        allCommentPtrs.push(commentPtr);\n        numOfComments += 1;\n    }\n\n    function getPost(uint256 postID) public returns (Post memory post) {\n        require(0 <= postID && postID < numOfPosts);\n        bytes32 ptr = allPostPtrs[postID];\n        post = ptr2Post[ptr];\n    }\n\n    function getComment(uint256 commentID) public returns (Comment memory c) {\n        require(0 <= commentID && commentID < numOfComments);\n        bytes32 ptr = allCommentPtrs[commentID];\n        c = ptr2Comment[ptr];\n    }\n}\n",
  "sourcePath": "/Users/edward/Library/Mobile Documents/com~apple~CloudDocs/Columbia 2022 Spring/Blockchain/project/dark/contracts/Dark.sol",
  "compiler": {
    "name": "solc",
    "version": "0.5.16+commit.9c3226ce.Emscripten.clang"
  },
  "schemaVersion": "3.4.7",
  "updatedAt": "2022-05-13T05:00:33.741Z",
  "devdoc": {
    "methods": {}
  },
  "userdoc": {
    "methods": {}
  }
}